new
8=FIX.4.4|9=112|35=8|34=2|49=EXECUTOR|52=20180506-09:40:24.736|56=CLIENT1|6=0|11=1|14=0|17=1|37=1|39=A|54=1|55=SMBL|150=A|151=0|10=028|
replace
8=FIX.4.4|9=112|35=8|34=3|49=EXECUTOR|52=20180506-10:04:34.715|56=CLIENT1|6=0|11=2|14=0|17=2|37=2|39=A|54=1|55=SMBL|150=A|151=0|10=022|
cancel
8=FIX.4.4|9=124|35=8|34=4|49=EXECUTOR|52=20180506-09:40:27.379|56=CLIENT1|6=0|11=3|14=0|17=3|37=3|38=100|39=4|41=1|54=1|55=SMBL|150=4|151=0|10=033|
partial
8=FIX.4.4|9=122|35=8|34=2|49=EXECUTOR|52=20180506-10:01:55.900|56=CLIENT1|6=0|11=1|14=0|17=1|31=0|32=0|37=1|39=1|54=1|55=SMBL|150=F|151=0|10=169|
reject
8=FIX.4.4|9=118|35=8|34=3|49=EXECUTOR|52=20180506-10:01:59.519|56=CLIENT1|6=0|11=2|14=0|17=2|37=2|39=8|54=1|55=SMBL|103=0|150=8|151=0|10=018|
executed
8=FIX.4.4|9=122|35=8|34=2|49=EXECUTOR|52=20180506-10:04:31.721|56=CLIENT1|6=0|11=1|14=0|17=1|31=0|32=0|37=1|39=2|54=1|55=SMBL|150=F|151=0|10=168|




